:0300000002063BBA
:0C063B00787FE4F6D8FD75810702068286
:0D07530090002DEFF0A3EBF0A3EAF0A3E976
:10076000120A3D7D077F0D1208F47D037F14120AE3
:100770006290002DE0900033F090004A7401F0A3E5
:10078000F0A37400F0A37433F0A37401F0A3740019
:10079000F0A37431F07A00793312002EEF703990A3
:1007A0000031E07004A3E06410702D900033E0FE8F
:1007B00090002EE0FBA3E0FAA3E0F9EE1208089007
:1007C0000034E0FE90002EE0FBA3E0FAA3E0F990F5
:0A07D0000001EE12081A80027FFEFD
:0107DA0022FC
:0B02F70090002DEBF0A3EAF0A3E9F06B
:10030200E4900031120A3DE4FD7F0D1208F47D8075
:100312007F0E120A429000347493F0A37420F0907E
:10032200004A7402F07B01A314F0A37400F0A374DA
:1003320034F0A3EBF0A37400F0A37432F07A0079E6
:10034200347F0C120032900030EFF07058FC74349D
:100352002CF582E43400F583E0FE90002DE0FBA34F
:10036200E0FAA3E0F9AF048F82758300EE12081A57
:10037200900031E0FE74342FF582E43400F583E01E
:10038200FDEE6D900031F00CECB404C274342CF527
:1003920082E43400F583E0FF900031E06F60069064
:1003A200003074FEF07D807F0E120A62900030E011
:0103B200FF4B
:0103B3002227
:0B03B40090002DEBF0A3EAF0A3E9F0AD
:1003BF009000327493F0A37470F0E4900038F0FC66
:1003CF0090002DE0FBA3E0FAA3E0F9AF048F827554
:1003DF0083001207DBFE74342FF582E43400F583BB
:1003EF00EEF0900038E0FE8F827583001207DBFD80
:1003FF00EE6D900038F00CECB404C5900048740119
:10040F00F0A37400F0A37439F07B017A0079327D88
:10041F000712050E120A3E90004A7409F0A37401E8
:10042F00F0A37400F0A37432F0A37401F0A374006E
:10043F00F0A37430F07B017A0079327F0C12003216
:10044F00EF700F900030E07004A3E064187003FFAA
:04045F0080027FFE9A
:010463002276
:0B05AB00900057EBF0A3EAF0A3E9F08A
:1005B60090005C7430F0A3EFF09000487401F0A353
:1005C6007400F0A3745EF07B017A00795C7D021200
:1005D600050E90004A7404F0A37401F0A37400F0B1
:1005E600A3745CF0A37401F0A37400F0A3745AF032
:1005F6007B017A00795C7F0C120032EF7034900038
:100606005AE07004A3E064907028FE745C2EF582B4
:10061600E43400F583E0FD900057E0FBA3E0FAA385
:10062600E0F98E82758300ED12081A0EEEB410DB27
:0406360080027FFEC1
:01063A00229D
:0B04640090006EEBF0A3EAF0A3E9F0BB
:10046F0090007374A0F0A3EFF09000487401F0A314
:10047F007400F0A37475F07D021205087404120065
:10048F000EEF7016900071E07004A3E06404700A20
:10049F00900073E0540F640A60027FFEEF7059FE04
:1004AF0090006EE0FBA3E0FAA3E0F98E8275830063
:1004BF001207DBFD74732EF582E43400F583EDF043
:1004CF000EEEB410DB9000487401F0A37400F0A39B
:1004DF007483F07D10120508741212000EEF70165F
:1004EF00900071E07004A3E06404700A900073E060
:0804FF00540F640A60027FFE45
:0105070022D1
:10085B009000307450F0E4A3F07B0190004804F05A
:10086B00A37400F0A37432F07A0079307D02120584
:10087B000E90004A7404F0A37401F0A37400F0A36B
:10088B007430F0A37401F0A37400F0A3742EF07B0A
:10089B00017A0079307F0C12003290002DEFF07F3F
:0108AB00004C
:0108AC002229
:060508007B017A0079730B
:0E050E00900044EBF0A3EAF0A3E9F0A3EDF0B7
:10051C007D047F05120A421208F07D807F0A120AC0
:10052C0062E490004BF0900047E0FF90004BE0FE3F
:10053C00C39F5021900044E0FBA3E0FAA3E0F98EA6
:10054C00827583001207DBFD7F091208F490004BC3
:10055C00E004F080D17D037F011208F490004B740D
:10056C00FFF07F051208B390004BE014F0E060043C
:10057C00EF30E2EE7F221208B3900048E0FBA3E0DC
:10058C00FAA3E0F9EF1208087F211208B390004893
:0F059C00E0FBA3E0FAA3E0F9900001EF02081AD8
:10092F00D29600C29600D296007D0F7F011208F476
:10093F00007D3D7F111208F47D1E7F2D1208F4E417
:10094F00FD7F2C1208F47D8D7F2A1208F47D3E7FE7
:0E095F002B1208F47D407F151208F47F002251
:0608AD00AC07AB05E4FE00
:1008B300E4FEC293C292EF25E0547E4480FF7D089C
:1008C300EF30E703D38001C39294D293EF25E0FF87
:1008D300C293DDEC7D08D293EE25E0FEA295E433CE
:0C08E3004EFEC293DDF0D292D293AF061D
:0108EF0022E6
:0408F000E4FD7F01A3
:1008F400C293C292EF25E0547EFF7E08EF30E703F7
:10090400D38001C39294D293EF25E0FFC293DEEC2F
:100914007E08ED30E703D38001C39294D293ED2592
:0A092400E0FDC293DEECD292D29304
:01092E0022A6
:0D0A62001208ADAE07AF04EB4EFD0208F424
:050A3D00F07D087F08B8
:0E0A42001208ADAE07AF04EBF45EFD0208F43F
:10000E0090004AF0A37401F0A37400F0A37473F08F
:10001E00A37401F0A37400F0A37471F07A007973E5
:04002E007B017F0CC7
:10003200900047EBF0A3EAF0A3E9F0900046EFF05E
:1000420090005174FEF0E4A3F0A3F0EF24F46010EA
:1000520024FE70169000527412F0A37410F0800AFD
:100062009000527477F0A37430F0900052E0448014
:10007200FD7F021208F47D807F04120A421208F00A
:100082007D807F0A120A62E4900055F0A3F090008E
:100092004AE0FF900055E0FCA3E0FDC39FEC940012
:1000A2005028900047E0FBA3E0FAA3E0F98D828C90
:1000B200831207DBFD7F091208F4900056E004F07A
:1000C20070CC900055E004F080C4900046E0FD7FC3
:1000D200011208F4E0B40C077D807F0D120A6290D1
:1000E20000557402F0A37458F07F041208B3900014
:1000F20054EFF0900056E024FFF0900055E034FFFA
:10010200F0E07002A3E06011900054E0FF20E009EB
:10011200900053E0FEEF5E60D07D807F0D120A42B8
:10012200900055E07002A3E070030202157F0612F0
:1001320008B3EF541B600302020F900051F0A3E0DA
:10014200FF900054E05F30E00690005174FFF090A1
:100152000046E0640C60030202157F0A1208B390A5
:100162000054EFF07F0C1208B3EF5407FD6026E055
:1001720024FFFFE434FFFEEF7803C333CE33CED83F
:10018200F97C002DFFEC3EF990004EE0FBA3E0FA73
:10019200A3E0C98016900054E075F008A4FF900017
:1001A2004EE0FBA3E0FAA3E0F9E5F08FF012083C81
:1001B200900054E0700204F0900054E0D394124096
:1001C200037412F0E4900055F0A3F0900054E0FFA5
:1001D200C3900056E09F900055E0940050357F098F
:1001E2001208B390004BE0FBA3E0FAA3E0F9900001
:1001F20055E0FCA3E0F5828C83EF12081A900056BA
:10020200E004F070C6900055E004F080BE9000510A
:1002120074FEF07D807F0C120A621208F090005189
:02022200E0FFFB
:0102240022B7
:100A50007F141208B3EF540370077D037F14120A4A
:010A60006233
:010A61002272
:070003007D037F14020A4295
:1009D10042002000005C00046361358D33D0998DA5
:1009E10093C2908D4319968DB3E29A8D477F88AB60
:0409F100FBD01922FC
:100A2700EF1FAA0670011E4A600BE4FDEDC3944652
:050A370050EE0D80F7F8
:010A3C002297
:10096D00208010900000E4F0A3740FF0A3E4F0A336
:10097D00740FF0208110900000E4F0A37419F0A31F
:10098D00E4F0A37419F0208210900000E4F0A37439
:0A099D001EF0A3E4F0A3741EF02284
:100A0F001209F612096DD290D291D297D2A7D2A61F
:080A1F001209A712022580F85C
:10022500E490002CF07B017A0079227F521207536B
:10023500EF60030202F67B017A0079221202F7EFE2
:1002450060030202E3FEE4FDFCEE25E025E0240464
:10025500F582E43400F583E5822CF582E43583F5F7
:1002650083E0FB74222CF582E43400F583E0F9EB9E
:10027500B501010DE9B503050CECB404CCEDC3944F
:1002850004405290002CEEF0B407005051900299B2
:10029500F82828730202AE0202B60202BA0202BEB2
:1002A5000202C60202CA0202D2D290C291C297804D
:1002B5002DC2908006C290800ED290D291C29780B6
:1002C5001DC290800AD290C291D2978011D290D24D
:1002D50091D29780090EEE6407600302024B7F0AF4
:1002E5007E00120A277B017A0079221203B41208D4
:0102F5005BAD
:0102F60022E5
:1009F60012092F120003120A50758901758CFF75B2
:090A06008A38D2A9D28CD2AF22A9
:090A6F00D2A2C2A3D2A4C2A522A6
:090A7800D2A2C2A3C2A4D2A5229D
:090A8100C2A2D2A3D2A4C2A52294
:1009A700120A6F20A00830A105120A7880F530A03E
:1009B7000820A105120A8180F530A00D30A10AC2D6
:0A09C700A2C2A3C2A4C2A580F022C0
:03000B000206C723
:1006C700C0E0C083C082C0D075D000C000C004C0E5
:1006D70005C006C007758CFF758A38900021E004B5
:1006E700F07006900020E004F0900021E0249CFFC9
:1006F700900020E034FF4F7003F0A3F0900000E07B
:10070700FEA3E0FF900020E0FCA3E0FDC39FEE64A2
:1007170080F8EC6480985004D2A78002C2A79000AA
:1007270002E0FEA3E0FFC3ED9FEE6480F8EC648077
:10073700985004D2A68002C2A6D007D006D005D012
:0C07470004D000D0D0D082D083D0E032AB
:10064700020A0FE493A3F8E493A34003F68001F2B0
:1006570008DFF48029E493A3F85407240CC8C333B4
:10066700C4540F4420C8834004F456800146F6DF83
:10067700E4800B01020408102040809009D1E47E39
:10068700019360BCA3FF543F30E509541FFEE49378
:10069700A360010ECF54C025E060A840B8E493A33F
:1006A700FAE493A3F8E493A3C8C582C8CAC583CA6A
:1006B700F0A3C8C582C8CAC583CADFE9DEE780BE22
:0109F5000001
:1007DB00BB010CE58229F582E5833AF583E02250D3
:1007EB0006E92582F8E622BBFE06E92582F8E2221D
:0D07FB00E58229F582E5833AF583E4932237
:10080800BB010689828A83F0225002F722BBFE01CF
:02081800F322C9
:10081A00F8BB010DE58229F582E5833AF583E8F014
:10082A00225006E92582C8F622BBFE05E92582C8C0
:02083A00F222A8
:10083C00BB010A89828A83F0E5F0A3F0225006F707
:0F084C0009A7F01922BBFE06F3E5F009F3192204
:00000001FF
